{
  "contractName": "Ecoupon",
  "abi": [
    {
      "inputs": [
        {
          "internalType": "string",
          "name": "",
          "type": "string"
        }
      ],
      "name": "blacklistedCoupon",
      "outputs": [
        {
          "internalType": "bool",
          "name": "",
          "type": "bool"
        }
      ],
      "stateMutability": "view",
      "type": "function",
      "constant": true
    },
    {
      "inputs": [
        {
          "internalType": "string",
          "name": "coupid",
          "type": "string"
        },
        {
          "internalType": "uint256",
          "name": "startdate",
          "type": "uint256"
        },
        {
          "internalType": "uint256",
          "name": "stopdate",
          "type": "uint256"
        },
        {
          "internalType": "string",
          "name": "discountamt",
          "type": "string"
        }
      ],
      "name": "addCoupon",
      "outputs": [],
      "stateMutability": "nonpayable",
      "type": "function"
    },
    {
      "inputs": [
        {
          "internalType": "string",
          "name": "couponid",
          "type": "string"
        }
      ],
      "name": "addUsedCoupon",
      "outputs": [],
      "stateMutability": "nonpayable",
      "type": "function"
    },
    {
      "inputs": [
        {
          "internalType": "string",
          "name": "couponid",
          "type": "string"
        }
      ],
      "name": "verifyUsedCoupon",
      "outputs": [
        {
          "internalType": "bool",
          "name": "",
          "type": "bool"
        }
      ],
      "stateMutability": "view",
      "type": "function",
      "constant": true
    },
    {
      "inputs": [
        {
          "internalType": "string",
          "name": "coupid",
          "type": "string"
        },
        {
          "internalType": "uint256",
          "name": "getdate",
          "type": "uint256"
        }
      ],
      "name": "getCoupon",
      "outputs": [
        {
          "internalType": "bool",
          "name": "",
          "type": "bool"
        },
        {
          "internalType": "string",
          "name": "",
          "type": "string"
        }
      ],
      "stateMutability": "view",
      "type": "function",
      "constant": true
    }
  ],
  "bytecode": "0x608060405234801561001057600080fd5b50610da3806100206000396000f3fe608060405234801561001057600080fd5b5060043610610074576000357c010000000000000000000000000000000000000000000000000000000090048063261bfb96146100795780632dce3460146100a9578063926c5c23146100d9578063a1cc8e401461010a578063ef90880d14610126575b600080fd5b610093600480360381019061008e9190610731565b610142565b6040516100a09190610795565b60405180910390f35b6100c360048036038101906100be9190610731565b610178565b6040516100d09190610795565b60405180910390f35b6100f360048036038101906100ee91906107e6565b6101b2565b6040516101019291906108c1565b60405180910390f35b610124600480360381019061011f91906108f1565b610504565b005b610140600480360381019061013b9190610731565b61059e565b005b6001818051602081018201805184825260208301602085012081835280955050505050506000915054906101000a900460ff1681565b60008060018360405161018b91906109cc565b908152602001604051809103902060009054906101000a900460ff16905080915050919050565b60006060600115156001856040516101ca91906109cc565b908152602001604051809103902060009054906101000a900460ff1615150361022e5760006040518060400160405280600b81526020017f436f75706f6e2055736564000000000000000000000000000000000000000000815250915091506104fd565b60005b6000805490508110156104bf576000808281548110610253576102526109e3565b5b906000526020600020906004020160405180608001604052908160008201805461027c90610a41565b80601f01602080910402602001604051908101604052809291908181526020018280546102a890610a41565b80156102f55780601f106102ca576101008083540402835291602001916102f5565b820191906000526020600020905b8154815290600101906020018083116102d857829003601f168201915b50505050508152602001600182015481526020016002820154815260200160038201805461032290610a41565b80601f016020809104026020016040519081016040528092919081815260200182805461034e90610a41565b801561039b5780601f106103705761010080835404028352916020019161039b565b820191906000526020600020905b81548152906001019060200180831161037e57829003601f168201915b5050505050815250509050856040516020016103b791906109cc565b6040516020818303038152906040528051906020012081600001516040516020016103e291906109cc565b60405160208183030381529060405280519060200120036104ab5784816020015111610468578060400151851161042557600181606001519350935050506104fd565b60006040518060400160405280600e81526020017f4e6f742056616c696420446174650000000000000000000000000000000000008152509350935050506104fd565b60006040518060400160405280600e81526020017f4e6f742056616c696420446174650000000000000000000000000000000000008152509350935050506104fd565b5080806104b790610aa1565b915050610231565b60006040518060400160405280600981526020017f4e6f7420466f756e64000000000000000000000000000000000000000000000081525092509250505b9250929050565b600060405180608001604052808681526020018581526020018481526020018381525090506000819080600181540180825580915050600190039060005260206000209060040201600090919091909150600082015181600001908161056a9190610c9b565b50602082015181600101556040820151816002015560608201518160030190816105949190610c9b565b5050505050505050565b600180826040516105af91906109cc565b908152602001604051809103902060006101000a81548160ff02191690831515021790555050565b6000604051905090565b600080fd5b600080fd5b600080fd5b600080fd5b6000601f19601f8301169050919050565b7f4e487b7100000000000000000000000000000000000000000000000000000000600052604160045260246000fd5b61063e826105f5565b810181811067ffffffffffffffff8211171561065d5761065c610606565b5b80604052505050565b60006106706105d7565b905061067c8282610635565b919050565b600067ffffffffffffffff82111561069c5761069b610606565b5b6106a5826105f5565b9050602081019050919050565b82818337600083830152505050565b60006106d46106cf84610681565b610666565b9050828152602081018484840111156106f0576106ef6105f0565b5b6106fb8482856106b2565b509392505050565b600082601f830112610718576107176105eb565b5b81356107288482602086016106c1565b91505092915050565b600060208284031215610747576107466105e1565b5b600082013567ffffffffffffffff811115610765576107646105e6565b5b61077184828501610703565b91505092915050565b60008115159050919050565b61078f8161077a565b82525050565b60006020820190506107aa6000830184610786565b92915050565b6000819050919050565b6107c3816107b0565b81146107ce57600080fd5b50565b6000813590506107e0816107ba565b92915050565b600080604083850312156107fd576107fc6105e1565b5b600083013567ffffffffffffffff81111561081b5761081a6105e6565b5b61082785828601610703565b9250506020610838858286016107d1565b9150509250929050565b600081519050919050565b600082825260208201905092915050565b60005b8381101561087c578082015181840152602081019050610861565b60008484015250505050565b600061089382610842565b61089d818561084d565b93506108ad81856020860161085e565b6108b6816105f5565b840191505092915050565b60006040820190506108d66000830185610786565b81810360208301526108e88184610888565b90509392505050565b6000806000806080858703121561090b5761090a6105e1565b5b600085013567ffffffffffffffff811115610929576109286105e6565b5b61093587828801610703565b9450506020610946878288016107d1565b9350506040610957878288016107d1565b925050606085013567ffffffffffffffff811115610978576109776105e6565b5b61098487828801610703565b91505092959194509250565b600081905092915050565b60006109a682610842565b6109b08185610990565b93506109c081856020860161085e565b80840191505092915050565b60006109d8828461099b565b915081905092915050565b7f4e487b7100000000000000000000000000000000000000000000000000000000600052603260045260246000fd5b7f4e487b7100000000000000000000000000000000000000000000000000000000600052602260045260246000fd5b60006002820490506001821680610a5957607f821691505b602082108103610a6c57610a6b610a12565b5b50919050565b7f4e487b7100000000000000000000000000000000000000000000000000000000600052601160045260246000fd5b6000610aac826107b0565b91507fffffffffffffffffffffffffffffffffffffffffffffffffffffffffffffffff8203610ade57610add610a72565b5b600182019050919050565b60008190508160005260206000209050919050565b60006020601f8301049050919050565b60008160020a8302905092915050565b600060088302610b4e7fffffffffffffffffffffffffffffffffffffffffffffffffffffffffffffffff82610b0e565b610b588683610b0e565b95508019841693508086168417925050509392505050565b6000819050919050565b6000610b95610b90610b8b846107b0565b610b70565b6107b0565b9050919050565b6000819050919050565b610baf83610b7a565b610bc3610bbb82610b9c565b848454610b1e565b825550505050565b600090565b610bd8610bcb565b610be3818484610ba6565b505050565b5b81811015610c0757610bfc600082610bd0565b600181019050610be9565b5050565b601f821115610c4c57610c1d81610ae9565b610c2684610afe565b81016020851015610c35578190505b610c49610c4185610afe565b830182610be8565b50505b505050565b60008160020a8304905092915050565b6000610c7260001984600802610c51565b1980831691505092915050565b6000610c8b8383610c61565b9150826002028217905092915050565b610ca482610842565b67ffffffffffffffff811115610cbd57610cbc610606565b5b610cc78254610a41565b610cd2828285610c0b565b600060209050601f831160018114610d055760008415610cf3578287015190505b610cfd8582610c7f565b865550610d65565b601f198416610d1386610ae9565b60005b82811015610d3b57848901518255600182019150602085019450602081019050610d16565b86831015610d585784890151610d54601f891682610c61565b8355505b6001600288020188555050505b50505050505056fea2646970667358221220dfc5bd3a0ca33f6c5fca690e4b3864f9def5b8ef3173bc39378e4a3610bdc53864736f6c63430008110033",
  "immutableReferences": {},
  "source": "//SPDX-License-Identifier: UNLICENSED\r\n// Solidity program\r\n// to store\r\n// Employee Details\r\n//pragma solidity ^0.6.8;\r\npragma solidity >=0.7.3;\r\n\r\n// Creating a Smart Contract\r\ncontract Ecoupon{\r\n\r\n// Structure of employee\r\nstruct Coupon{\r\n\t\r\n// State variables\r\n\tstring coupid;\r\n\tuint startdate;\r\n\tuint stopdate;\r\n\tstring discountamt;\r\n}\r\n\r\nCoupon []coups;\r\n\r\n//uint deployDate=block.timestamp;\r\n\r\n//function Time_call() returns (uint256){\r\n//        return now;\r\n//    }\r\n\r\n// Function to add\r\n// employee details\r\nfunction addCoupon(\r\n\tstring memory coupid, uint startdate,\r\n\tuint stopdate,\r\n\tstring memory discountamt\r\n    \r\n) public{\r\n\tCoupon memory e\r\n\t\t=Coupon(coupid,\r\n\t\t\t\tstartdate,\r\n\t\t\t\tstopdate,\r\n\t\t\t\tdiscountamt);\r\n\tcoups.push(e);\r\n}\r\n\r\nmapping(string => bool) public blacklistedCoupon;\r\n\r\nfunction addUsedCoupon(string memory couponid) public {\r\n    blacklistedCoupon[couponid] = true;\r\n}\r\n\r\n//function addUsedCouponid(string memory couponid) internal {\r\n//    blacklistedCoupon[couponid] = true;\r\n//}\r\n\r\nfunction verifyUsedCoupon(string memory couponid) public view returns(bool) {\r\n    bool userIsBlacklisted = blacklistedCoupon[couponid];\r\n    return userIsBlacklisted;\r\n}\r\n\r\n\r\n// Function to get\r\n// details of Coupon\r\n//uint date_1 = 1638352800; // 2012-12-01 10:00:00\r\n//uint date_2 = 1638871200; // 2012-12-07 10:00:00\r\nfunction getCoupon(\r\n\tstring memory coupid,uint getdate\r\n) public view returns(bool,\tstring memory)\r\n{\r\n\tif (blacklistedCoupon[coupid] == true)\r\n\t{\r\n\t\treturn (false,\"Coupon Used\");\r\n\t}\r\n\t//blacklistedCoupon[coupid] = true;\r\n\tuint i;\r\n\tfor(i=0;i<coups.length;i++)\r\n\t{\r\n\t\tCoupon memory e\r\n\t\t\t=coups[i];\r\n\t\t\r\n\t\t// Looks for a matching\r\n\t\t// employee id\r\n\t\tif(keccak256(abi.encodePacked(e.coupid))==keccak256(abi.encodePacked(coupid)))\r\n\t\t{\r\n\t\t\t\tif(e.startdate <= getdate)\r\n                {\r\n                if(getdate <= e.stopdate) {\t\t\t\t\t\r\n\t\t\t\t\treturn (true,e.discountamt);}\r\n                else {\r\n                return (false,'Not Valid Date');}\r\n                }\r\n                else { return (false,'Not Valid Date');}\r\n             \r\n\t\t}\r\n\t}\r\n\t\r\n\t// If provided employee\r\n\t// id is not present\r\n\t// it returns Not\r\n\t// Found\r\n\treturn(false,\"Not Found\");\r\n}\r\n}\r\n",
  "sourcePath": "D:\\Development 22-23\\Ecoupon-Truffle-ganache\\contracts\\Ecoupon.sol",
  "compiler": {
    "name": "solc",
    "version": "0.8.17+commit.8df45f5f.Emscripten.clang"
  },
  "schemaVersion": "3.4.12",
  "updatedAt": "2023-03-07T08:08:16.108Z",
  "networkType": "ethereum",
  "devdoc": {
    "kind": "dev",
    "methods": {},
    "version": 1
  },
  "userdoc": {
    "kind": "user",
    "methods": {},
    "version": 1
  }
}